:030000000204599E
:0C045900787FE4F6D8FD7581200204A035
:0A055B003F065B4F666D7D077F6F62
:08056500C100C181020C00007D
:0704E50093F5807F0A7E0001
:1004EC00D3EF9400EE94004015E4FDFC0DBD00012B
:0E04FC000CED646E4C70F5EF1F70E51E80E293
:01050A0022CE
:10050B00C296C297C295E4F50CF50D758901758AF3
:0F051B00FF758CFFD2AFD2A8D2A9D288D28C2282
:1003BA00AC08AD09E41201B97B007AC0790578442A
:1003CA0012000EE4FBFA797F78431201171201F248
:1003DA00AB07AA067C037DE81202857E007C037DBA
:1003EA00E8120273C3EB9FFFEA9EFE7C007D641253
:1003FA0002858F0A7C007D64AF03AE021202857EFD
:10040A00007F0ACFCDCFCECCCE1202858F0BAE02A3
:10041A00AF037C007D0A120285AB05C29030020947
:10042A0090055BE493F58080037580401204E8D25E
:10043A0090C291E50A90055B1204E5D291C292E559
:0E044A000B1204E5D292C293EB1204E5D2939A
:010458002281
:1005490012050BA2019202850C08850D091203BA46
:0205590080F12F
:030003000202E80E
:1002E800C0E0C0D075D000C004C005C006C007205B
:1002F800A0341204E820A02EB200200015750C00CE
:10030800750D0075A0FFC295C296C297C2A7D2010B
:10031800801175A0FF750C00750D64C296D297C246
:10032800A5D20130A0FD20A1141204E820A10B756C
:10033800A0FFC296D297C2A5D20130A1FD20A21477
:100348001204E820A20B75A0FFD296C297C2A6C2DB
:100358000130A2FD20A3251204E820A31C74052562
:100368000DF50DE4350CF50CC3E50D94FFE50C9483
:10037800004006750C00750DFF30A3FD20A4261261
:1003880004E820A41D74FB250DF50D74FF350CF54C
:100398000CD3E50D9400E50C94005006750C00751F
:1003A8000D0030A4FDD007D006D005D004D0D0D0A1
:0203B800E03231
:03000B0002052AC1
:10052A00C0E0C0D0B295758AFFB294309509C37401
:0F053A00FF950DF58C8003850D8CD0D0D0E0326D
:10000E00EC4D6011E8497017ED33EC3304600DE4EC
:10001E00FCFFFEFD22E933E8330470F802025E12A3
:10002E00022958046009E4CC2481500628500902A4
:10003E000268284003020265C0E0EB4A7044B980B2
:10004E0006D0E0FB020254EF4E701CBD8008EBFFA1
:10005E00EAFEE9FD80EBE98DF0A4FEE5F00200F783
:10006E00E9CDF9EAFEEBFFEF89F0A4FCE5F0CE89CD
:10007E00F0A42EFFE435F0CD89F0A42DFEE435F08A
:10008E008067EF4E7005BD80D780C3EF8BF0A4ACB8
:10009E00F0EE8BF0A42CFCE435F0F8EF8AF0A42CF3
:1000AE00E5F038FCE433CB8DF0A42CFCE5F03BF806
:1000BE00EE8AF0A42CFCE5F038F8E433CF89F0A4F6
:1000CE002CFCE5F038CF3400CE89F0A42FFFE5F0FC
:1000DE003EFEE433C98DF0A42EFEE5F039CD8AF054
:1000EE00A42FFFE5F03EFEE43DFD33D0E0FB5007CC
:1000FE000BBB000F020268EC2CFCEF33FFEE33FE5D
:06010E00ED33FD0202408A
:10011400020268EC5D046005E85904700302025EA3
:10012400120229580460F6EC4860F2EC7004FDFEFB
:10013400FF22C860DB2481C85009C39860025006BE
:100144000202659850CAF582E9294B4A7005AB82D0
:1001540002025475F0007C1A7880C3EF9BEE9AED8E
:1001640099400DC3EF9BFFEE9AFEED99FDE842F036
:10017400DC23ACF0D0E0FFD0E0FED0E0FDAB822089
:10018400E7101BEB60BAEC2CFCEF33FFEE33FEED13
:1001940033FD020240E803F830E705C0F075F000D3
:1001A400EF2FFFEE33FEED33FD40B830E7C280AAF7
:1001B40075F020800E75F010800575F0087D007EC6
:1001C400007F003392D530D5031202DAEC334010AD
:1001D400EF33FFEE33FEED33FDEC33FCD5F0ED22CF
:0E01E400E5F0247EA2D513CC92E7CDCEFF220B
:1001F200EDD2E7CD33EC3392D524814006E4FFFE05
:10020200FDFC22FCE4CFCECDCC24E0501174FF8063
:10021200EDC3CC13CCCD13CDCE13CECF13CF047000
:07022200F030D5DE0202DA24
:10022900E9D2E7C933E833F892D5EDD2E7CD33EC1B
:0702390033FC5002B2D52294
:10024000EC30E7100FBF000C0EBE00080DBD00041F
:100250000BEB6014A2D5EB13FCED92E7FD2274FFCB
:10026000FCFDFEFF22E480F8A2D574FF13FC7D8024
:03027000E480EF38
:10046500020549E493A3F8E493A34003F68001F25F
:1004750008DFF48029E493A3F85407240CC8C33398
:10048500C4540F4420C8834004F456800146F6DF67
:10049500E4800B0102040810204080900565E47E8D
:1004A500019360BCA3FF543F30E509541FFEE4935C
:1004B500A360010ECF54C025E060A840B8E493A323
:1004C500FAE493A3F8E493A3C8C582C8CAC583CA4E
:1004D500F0A3C8C582C8CAC583CADFE9DEE780BE06
:01056D00008D
:10027300EF8DF0A4A8F0CF8CF0A428CE8DF0A42E9F
:02028300FE2259
:10028500BC000BBE0029EF8DF084FFADF022E4CC5D
:10029500F875F008EF2FFFEE33FEEC33FCEE9DEC26
:1002A500984005FCEE9DFE0FD5F0E9E4CEFD22ED6C
:1002B500F8F5F0EE8420D21CFEADF075F008EF2FB6
:1002C500FFED33FD4007985006D5F0F222C398FDA7
:0502D5000FD5F0EA2244
:0E02DA00C3E49FFFE49EFEE49DFDE49CFC2235
:00000001FF
